{
  "_format": "hh-sol-artifact-1",
  "contractName": "zXDAO",
  "sourceName": "contracts/zXDAO.sol",
  "abi": [
    {
      "inputs": [
        {
          "internalType": "address",
          "name": "_semaphoreAddress",
          "type": "address"
        }
      ],
      "stateMutability": "nonpayable",
      "type": "constructor"
    },
    {
      "inputs": [],
      "name": "_memberCount",
      "outputs": [
        {
          "internalType": "uint256",
          "name": "",
          "type": "uint256"
        }
      ],
      "stateMutability": "view",
      "type": "function"
    },
    {
      "inputs": [],
      "name": "_proposalId",
      "outputs": [
        {
          "internalType": "uint256",
          "name": "",
          "type": "uint256"
        }
      ],
      "stateMutability": "view",
      "type": "function"
    },
    {
      "inputs": [
        {
          "internalType": "string",
          "name": "title",
          "type": "string"
        },
        {
          "internalType": "uint256",
          "name": "timeEnd",
          "type": "uint256"
        },
        {
          "internalType": "uint256",
          "name": "depth",
          "type": "uint256"
        },
        {
          "internalType": "uint256",
          "name": "regtime",
          "type": "uint256"
        }
      ],
      "name": "addProposal",
      "outputs": [],
      "stateMutability": "nonpayable",
      "type": "function"
    },
    {
      "inputs": [],
      "name": "checkRegistered",
      "outputs": [
        {
          "internalType": "bool",
          "name": "",
          "type": "bool"
        }
      ],
      "stateMutability": "view",
      "type": "function"
    },
    {
      "inputs": [
        {
          "internalType": "uint256",
          "name": "",
          "type": "uint256"
        }
      ],
      "name": "completed",
      "outputs": [
        {
          "internalType": "bool",
          "name": "",
          "type": "bool"
        }
      ],
      "stateMutability": "view",
      "type": "function"
    },
    {
      "inputs": [
        {
          "internalType": "uint256",
          "name": "proposalId",
          "type": "uint256"
        },
        {
          "internalType": "uint256",
          "name": "identityCommitment",
          "type": "uint256"
        }
      ],
      "name": "joinProposal",
      "outputs": [],
      "stateMutability": "nonpayable",
      "type": "function"
    },
    {
      "inputs": [
        {
          "internalType": "uint256",
          "name": "",
          "type": "uint256"
        }
      ],
      "name": "members",
      "outputs": [
        {
          "internalType": "uint256",
          "name": "member_id",
          "type": "uint256"
        },
        {
          "internalType": "address",
          "name": "member_address",
          "type": "address"
        }
      ],
      "stateMutability": "view",
      "type": "function"
    },
    {
      "inputs": [],
      "name": "proposalList",
      "outputs": [
        {
          "components": [
            {
              "internalType": "uint256",
              "name": "proposalId",
              "type": "uint256"
            },
            {
              "internalType": "string",
              "name": "title",
              "type": "string"
            },
            {
              "internalType": "address",
              "name": "initiator",
              "type": "address"
            },
            {
              "internalType": "uint256",
              "name": "forVotes",
              "type": "uint256"
            },
            {
              "internalType": "uint256",
              "name": "againstVotes",
              "type": "uint256"
            },
            {
              "internalType": "uint256",
              "name": "forPercentage",
              "type": "uint256"
            },
            {
              "internalType": "uint256",
              "name": "againstPercentage",
              "type": "uint256"
            },
            {
              "internalType": "bool",
              "name": "status",
              "type": "bool"
            },
            {
              "internalType": "uint256",
              "name": "timeInitiated",
              "type": "uint256"
            },
            {
              "internalType": "uint256",
              "name": "totalVotes",
              "type": "uint256"
            },
            {
              "internalType": "uint256",
              "name": "tillTime",
              "type": "uint256"
            },
            {
              "internalType": "uint256",
              "name": "regtime",
              "type": "uint256"
            }
          ],
          "internalType": "struct zXDAO.Proposals[]",
          "name": "",
          "type": "tuple[]"
        }
      ],
      "stateMutability": "view",
      "type": "function"
    },
    {
      "inputs": [
        {
          "internalType": "uint256",
          "name": "",
          "type": "uint256"
        }
      ],
      "name": "proposals",
      "outputs": [
        {
          "internalType": "uint256",
          "name": "proposalId",
          "type": "uint256"
        },
        {
          "internalType": "string",
          "name": "title",
          "type": "string"
        },
        {
          "internalType": "address",
          "name": "initiator",
          "type": "address"
        },
        {
          "internalType": "uint256",
          "name": "forVotes",
          "type": "uint256"
        },
        {
          "internalType": "uint256",
          "name": "againstVotes",
          "type": "uint256"
        },
        {
          "internalType": "uint256",
          "name": "forPercentage",
          "type": "uint256"
        },
        {
          "internalType": "uint256",
          "name": "againstPercentage",
          "type": "uint256"
        },
        {
          "internalType": "bool",
          "name": "status",
          "type": "bool"
        },
        {
          "internalType": "uint256",
          "name": "timeInitiated",
          "type": "uint256"
        },
        {
          "internalType": "uint256",
          "name": "totalVotes",
          "type": "uint256"
        },
        {
          "internalType": "uint256",
          "name": "tillTime",
          "type": "uint256"
        },
        {
          "internalType": "uint256",
          "name": "regtime",
          "type": "uint256"
        }
      ],
      "stateMutability": "view",
      "type": "function"
    },
    {
      "inputs": [],
      "name": "register",
      "outputs": [],
      "stateMutability": "nonpayable",
      "type": "function"
    },
    {
      "inputs": [
        {
          "internalType": "address",
          "name": "",
          "type": "address"
        }
      ],
      "name": "registered",
      "outputs": [
        {
          "internalType": "bool",
          "name": "",
          "type": "bool"
        }
      ],
      "stateMutability": "view",
      "type": "function"
    },
    {
      "inputs": [],
      "name": "semaphore",
      "outputs": [
        {
          "internalType": "contract ISemaphore",
          "name": "",
          "type": "address"
        }
      ],
      "stateMutability": "view",
      "type": "function"
    },
    {
      "inputs": [],
      "name": "semaphoreAddress",
      "outputs": [
        {
          "internalType": "address",
          "name": "",
          "type": "address"
        }
      ],
      "stateMutability": "view",
      "type": "function"
    },
    {
      "inputs": [],
      "name": "statusProposals",
      "outputs": [],
      "stateMutability": "payable",
      "type": "function"
    },
    {
      "inputs": [
        {
          "internalType": "uint256",
          "name": "proposalId",
          "type": "uint256"
        },
        {
          "internalType": "uint256",
          "name": "vote",
          "type": "uint256"
        },
        {
          "internalType": "uint256",
          "name": "merkleTreeRoot",
          "type": "uint256"
        },
        {
          "internalType": "uint256",
          "name": "nullifierHash",
          "type": "uint256"
        },
        {
          "internalType": "uint256",
          "name": "externalNullifier",
          "type": "uint256"
        },
        {
          "internalType": "uint256[8]",
          "name": "proof",
          "type": "uint256[8]"
        }
      ],
      "name": "voteOnproposal",
      "outputs": [],
      "stateMutability": "nonpayable",
      "type": "function"
    }
  ],
  "bytecode": "0x6080604052600060025560006003553480156200001b57600080fd5b5060405162002108380380620021088339818101604052810190620000419190620000a0565b80600760006101000a81548173ffffffffffffffffffffffffffffffffffffffff021916908373ffffffffffffffffffffffffffffffffffffffff160217905550506200011a565b6000815190506200009a8162000100565b92915050565b600060208284031215620000b357600080fd5b6000620000c38482850162000089565b91505092915050565b6000620000d982620000e0565b9050919050565b600073ffffffffffffffffffffffffffffffffffffffff82169050919050565b6200010b81620000cc565b81146200011757600080fd5b50565b611fde806200012a6000396000f3fe6080604052600436106100e85760003560e01c80635daf08ca1161008a578063c7b2681d11610059578063c7b2681d14610302578063f4a22f2a1461032b578063f7da2ac914610335578063fdbccb8614610360576100e8565b80635daf08ca1461021f5780637b5d25341461025d578063b2dd5c0714610288578063c0cca5ef146102c5576100e8565b806329490a93116100c657806329490a93146101775780633efdf55f146101a057806344389524146101c95780635b01fb39146101f4576100e8565b8063013cf08b146100ed5780631aa3a008146101355780632453abda1461014c575b600080fd5b3480156100f957600080fd5b50610114600480360381019061010f91906114d4565b61038b565b60405161012c9c9b9a99989796959493929190611a42565b60405180910390f35b34801561014157600080fd5b5061014a6104b0565b005b34801561015857600080fd5b50610161610660565b60405161016e91906119fe565b60405180910390f35b34801561018357600080fd5b5061019e60048036038101906101999190611539565b610666565b005b3480156101ac57600080fd5b506101c760048036038101906101c291906114fd565b610941565b005b3480156101d557600080fd5b506101de610b93565b6040516101eb9190611906565b60405180910390f35b34801561020057600080fd5b50610209610d50565b6040516102169190611928565b60405180910390f35b34801561022b57600080fd5b50610246600480360381019061024191906114d4565b610da4565b604051610254929190611a19565b60405180910390f35b34801561026957600080fd5b50610272610df8565b60405161027f9190611943565b60405180910390f35b34801561029457600080fd5b506102af60048036038101906102aa9190611430565b610e1e565b6040516102bc9190611928565b60405180910390f35b3480156102d157600080fd5b506102ec60048036038101906102e791906114d4565b610e3e565b6040516102f99190611928565b60405180910390f35b34801561030e57600080fd5b5061032960048036038101906103249190611459565b610e5e565b005b610333611123565b005b34801561034157600080fd5b5061034a6112b1565b60405161035791906118eb565b60405180910390f35b34801561036c57600080fd5b506103756112d7565b60405161038291906119fe565b60405180910390f35b6001818154811061039b57600080fd5b90600052602060002090600c02016000915090508060000154908060010180546103c490611d63565b80601f01602080910402602001604051908101604052809291908181526020018280546103f090611d63565b801561043d5780601f106104125761010080835404028352916020019161043d565b820191906000526020600020905b81548152906001019060200180831161042057829003601f168201915b5050505050908060020160009054906101000a900473ffffffffffffffffffffffffffffffffffffffff16908060030154908060040154908060050154908060060154908060070160009054906101000a900460ff169080600801549080600901549080600a01549080600b015490508c565b60001515600460003373ffffffffffffffffffffffffffffffffffffffff1673ffffffffffffffffffffffffffffffffffffffff16815260200190815260200160002060009054906101000a900460ff16151514610543576040517f08c379a000000000000000000000000000000000000000000000000000000000815260040161053a906119be565b60405180910390fd5b6003600081548092919061055690611dc6565b91905055506000604051806040016040528060035481526020013373ffffffffffffffffffffffffffffffffffffffff1681525090806001815401808255809150506001900390600052602060002090600202016000909190919091506000820151816000015560208201518160010160006101000a81548173ffffffffffffffffffffffffffffffffffffffff021916908373ffffffffffffffffffffffffffffffffffffffff16021790555050506001600460003373ffffffffffffffffffffffffffffffffffffffff1673ffffffffffffffffffffffffffffffffffffffff16815260200190815260200160002060006101000a81548160ff021916908315150217905550565b60025481565b60011515600187815481106106a4577f4e487b7100000000000000000000000000000000000000000000000000000000600052603260045260246000fd5b90600052602060002090600c020160070160009054906101000a900460ff16151514610705576040517f08c379a00000000000000000000000000000000000000000000000000000000081526004016106fc9061197e565b60405180910390fd5b60018514156107d55760018681548110610748577f4e487b7100000000000000000000000000000000000000000000000000000000600052603260045260246000fd5b90600052602060002090600c0201600301600081548092919061076a90611dc6565b9190505550600186815481106107a9577f4e487b7100000000000000000000000000000000000000000000000000000000600052603260045260246000fd5b90600052602060002090600c020160090160008154809291906107cb90611dc6565b91905055506108a2565b60008514156108a15760018681548110610818577f4e487b7100000000000000000000000000000000000000000000000000000000600052603260045260246000fd5b90600052602060002090600c0201600401600081548092919061083a90611dc6565b919050555060018681548110610879577f4e487b7100000000000000000000000000000000000000000000000000000000600052603260045260246000fd5b90600052602060002090600c0201600901600081548092919061089b90611dc6565b91905055505b5b600660009054906101000a900473ffffffffffffffffffffffffffffffffffffffff1673ffffffffffffffffffffffffffffffffffffffff16633bc778e38786888787876040518763ffffffff1660e01b815260040161090796959493929190611b63565b600060405180830381600087803b15801561092157600080fd5b505af1158015610935573d6000803e3d6000fd5b50505050505050505050565b600115156001838154811061097f577f4e487b7100000000000000000000000000000000000000000000000000000000600052603260045260246000fd5b90600052602060002090600c020160070160009054906101000a900460ff161515146109e0576040517f08c379a00000000000000000000000000000000000000000000000000000000081526004016109d79061197e565b60405180910390fd5b60011515600460003373ffffffffffffffffffffffffffffffffffffffff1673ffffffffffffffffffffffffffffffffffffffff16815260200190815260200160002060009054906101000a900460ff16151514610a73576040517f08c379a0000000000000000000000000000000000000000000000000000000008152600401610a6a906119de565b60405180910390fd5b4260018381548110610aae577f4e487b7100000000000000000000000000000000000000000000000000000000600052603260045260246000fd5b90600052602060002090600c0201600b015410610b00576040517f08c379a0000000000000000000000000000000000000000000000000000000008152600401610af79061199e565b60405180910390fd5b600660009054906101000a900473ffffffffffffffffffffffffffffffffffffffff1673ffffffffffffffffffffffffffffffffffffffff16631783efc383836040518363ffffffff1660e01b8152600401610b5d929190611b03565b600060405180830381600087803b158015610b7757600080fd5b505af1158015610b8b573d6000803e3d6000fd5b505050505050565b60606001805480602002602001604051908101604052809291908181526020016000905b82821015610d4757838290600052602060002090600c02016040518061018001604052908160008201548152602001600182018054610bf590611d63565b80601f0160208091040260200160405190810160405280929190818152602001828054610c2190611d63565b8015610c6e5780601f10610c4357610100808354040283529160200191610c6e565b820191906000526020600020905b815481529060010190602001808311610c5157829003601f168201915b505050505081526020016002820160009054906101000a900473ffffffffffffffffffffffffffffffffffffffff1673ffffffffffffffffffffffffffffffffffffffff1673ffffffffffffffffffffffffffffffffffffffff168152602001600382015481526020016004820154815260200160058201548152602001600682015481526020016007820160009054906101000a900460ff161515151581526020016008820154815260200160098201548152602001600a8201548152602001600b8201548152505081526020019060010190610bb7565b50505050905090565b6000600460003373ffffffffffffffffffffffffffffffffffffffff1673ffffffffffffffffffffffffffffffffffffffff16815260200190815260200160002060009054906101000a900460ff16905090565b60008181548110610db457600080fd5b90600052602060002090600202016000915090508060000154908060010160009054906101000a900473ffffffffffffffffffffffffffffffffffffffff16905082565b600660009054906101000a900473ffffffffffffffffffffffffffffffffffffffff1681565b60046020528060005260406000206000915054906101000a900460ff1681565b60056020528060005260406000206000915054906101000a900460ff1681565b60011515600460003373ffffffffffffffffffffffffffffffffffffffff1673ffffffffffffffffffffffffffffffffffffffff16815260200190815260200160002060009054906101000a900460ff16151514610ef1576040517f08c379a0000000000000000000000000000000000000000000000000000000008152600401610ee89061195e565b60405180910390fd5b600160405180610180016040528060025481526020018681526020013373ffffffffffffffffffffffffffffffffffffffff16815260200160008152602001600081526020016000815260200160008152602001600115158152602001428152602001600081526020018581526020018381525090806001815401808255809150506001900390600052602060002090600c0201600090919091909150600082015181600001556020820151816001019080519060200190610fb49291906112dd565b5060408201518160020160006101000a81548173ffffffffffffffffffffffffffffffffffffffff021916908373ffffffffffffffffffffffffffffffffffffffff160217905550606082015181600301556080820151816004015560a0820151816005015560c0820151816006015560e08201518160070160006101000a81548160ff0219169083151502179055506101008201518160080155610120820151816009015561014082015181600a015561016082015181600b015550506002600081548092919061108590611dc6565b9190505550600660009054906101000a900473ffffffffffffffffffffffffffffffffffffffff1673ffffffffffffffffffffffffffffffffffffffff16639c11214160025484306040518463ffffffff1660e01b81526004016110eb93929190611b2c565b600060405180830381600087803b15801561110557600080fd5b505af1158015611119573d6000803e3d6000fd5b5050505050505050565b60005b6002548110156112ae576001818154811061116a577f4e487b7100000000000000000000000000000000000000000000000000000000600052603260045260246000fd5b90600052602060002090600c0201600a0154600182815481106111b6577f4e487b7100000000000000000000000000000000000000000000000000000000600052603260045260246000fd5b90600052602060002090600c020160080154426111d39190611c81565b101580156112055750600015156005600083815260200190815260200160002060009054906101000a900460ff161515145b1561129b5760016005600083815260200190815260200160002060006101000a81548160ff021916908315150217905550600060018281548110611272577f4e487b7100000000000000000000000000000000000000000000000000000000600052603260045260246000fd5b90600052602060002090600c020160070160006101000a81548160ff0219169083151502179055505b80806112a690611dc6565b915050611126565b50565b600760009054906101000a900473ffffffffffffffffffffffffffffffffffffffff1681565b60035481565b8280546112e990611d63565b90600052602060002090601f01602090048101928261130b5760008555611352565b82601f1061132457805160ff1916838001178555611352565b82800160010185558215611352579182015b82811115611351578251825591602001919060010190611336565b5b50905061135f9190611363565b5090565b5b8082111561137c576000816000905550600101611364565b5090565b600061139361138e84611bea565b611bc5565b9050828152602081018484840111156113ab57600080fd5b6113b6848285611d21565b509392505050565b6000813590506113cd81611f7a565b92915050565b6000819050826020600802820111156113eb57600080fd5b92915050565b600082601f83011261140257600080fd5b8135611412848260208601611380565b91505092915050565b60008135905061142a81611f91565b92915050565b60006020828403121561144257600080fd5b6000611450848285016113be565b91505092915050565b6000806000806080858703121561146f57600080fd5b600085013567ffffffffffffffff81111561148957600080fd5b611495878288016113f1565b94505060206114a68782880161141b565b93505060406114b78782880161141b565b92505060606114c88782880161141b565b91505092959194509250565b6000602082840312156114e657600080fd5b60006114f48482850161141b565b91505092915050565b6000806040838503121561151057600080fd5b600061151e8582860161141b565b925050602061152f8582860161141b565b9150509250929050565b6000806000806000806101a0878903121561155357600080fd5b600061156189828a0161141b565b965050602061157289828a0161141b565b955050604061158389828a0161141b565b945050606061159489828a0161141b565b93505060806115a589828a0161141b565b92505060a06115b689828a016113d3565b9150509295509295509295565b60006115cf83836117c9565b905092915050565b6115e081611cb5565b82525050565b6115ef81611cb5565b82525050565b600061160082611c2b565b61160a8185611c4e565b93508360208202850161161c85611c1b565b8060005b85811015611658578484038952815161163985826115c3565b945061164483611c41565b925060208a01995050600181019050611620565b50829750879550505050505092915050565b6116776101008383611d21565b5050565b61168481611cc7565b82525050565b61169381611cc7565b82525050565b6116a281611cfd565b82525050565b60006116b382611c36565b6116bd8185611c5f565b93506116cd818560208601611d30565b6116d681611e9c565b840191505092915050565b60006116ec82611c36565b6116f68185611c70565b9350611706818560208601611d30565b61170f81611e9c565b840191505092915050565b6000611727600e83611c70565b915061173282611ead565b602082019050919050565b600061174a600a83611c70565b915061175582611ed6565b602082019050919050565b600061176d600d83611c70565b915061177882611eff565b602082019050919050565b6000611790601283611c70565b915061179b82611f28565b602082019050919050565b60006117b3600c83611c70565b91506117be82611f51565b602082019050919050565b6000610180830160008301516117e260008601826118cd565b50602083015184820360208601526117fa82826116a8565b915050604083015161180f60408601826115d7565b50606083015161182260608601826118cd565b50608083015161183560808601826118cd565b5060a083015161184860a08601826118cd565b5060c083015161185b60c08601826118cd565b5060e083015161186e60e086018261167b565b506101008301516118836101008601826118cd565b506101208301516118986101208601826118cd565b506101408301516118ad6101408601826118cd565b506101608301516118c26101608601826118cd565b508091505092915050565b6118d681611cf3565b82525050565b6118e581611cf3565b82525050565b600060208201905061190060008301846115e6565b92915050565b6000602082019050818103600083015261192081846115f5565b905092915050565b600060208201905061193d600083018461168a565b92915050565b60006020820190506119586000830184611699565b92915050565b600060208201905081810360008301526119778161171a565b9050919050565b600060208201905081810360008301526119978161173d565b9050919050565b600060208201905081810360008301526119b781611760565b9050919050565b600060208201905081810360008301526119d781611783565b9050919050565b600060208201905081810360008301526119f7816117a6565b9050919050565b6000602082019050611a1360008301846118dc565b92915050565b6000604082019050611a2e60008301856118dc565b611a3b60208301846115e6565b9392505050565b600061018082019050611a58600083018f6118dc565b8181036020830152611a6a818e6116e1565b9050611a79604083018d6115e6565b611a86606083018c6118dc565b611a93608083018b6118dc565b611aa060a083018a6118dc565b611aad60c08301896118dc565b611aba60e083018861168a565b611ac86101008301876118dc565b611ad66101208301866118dc565b611ae46101408301856118dc565b611af26101608301846118dc565b9d9c50505050505050505050505050565b6000604082019050611b1860008301856118dc565b611b2560208301846118dc565b9392505050565b6000606082019050611b4160008301866118dc565b611b4e60208301856118dc565b611b5b60408301846115e6565b949350505050565b60006101a082019050611b7960008301896118dc565b611b8660208301886118dc565b611b9360408301876118dc565b611ba060608301866118dc565b611bad60808301856118dc565b611bba60a083018461166a565b979650505050505050565b6000611bcf611be0565b9050611bdb8282611d95565b919050565b6000604051905090565b600067ffffffffffffffff821115611c0557611c04611e6d565b5b611c0e82611e9c565b9050602081019050919050565b6000819050602082019050919050565b600081519050919050565b600081519050919050565b6000602082019050919050565b600082825260208201905092915050565b600082825260208201905092915050565b600082825260208201905092915050565b6000611c8c82611cf3565b9150611c9783611cf3565b925082821015611caa57611ca9611e0f565b5b828203905092915050565b6000611cc082611cd3565b9050919050565b60008115159050919050565b600073ffffffffffffffffffffffffffffffffffffffff82169050919050565b6000819050919050565b6000611d0882611d0f565b9050919050565b6000611d1a82611cd3565b9050919050565b82818337600083830152505050565b60005b83811015611d4e578082015181840152602081019050611d33565b83811115611d5d576000848401525b50505050565b60006002820490506001821680611d7b57607f821691505b60208210811415611d8f57611d8e611e3e565b5b50919050565b611d9e82611e9c565b810181811067ffffffffffffffff82111715611dbd57611dbc611e6d565b5b80604052505050565b6000611dd182611cf3565b91507fffffffffffffffffffffffffffffffffffffffffffffffffffffffffffffffff821415611e0457611e03611e0f565b5b600182019050919050565b7f4e487b7100000000000000000000000000000000000000000000000000000000600052601160045260246000fd5b7f4e487b7100000000000000000000000000000000000000000000000000000000600052602260045260246000fd5b7f4e487b7100000000000000000000000000000000000000000000000000000000600052604160045260246000fd5b6000601f19601f8301169050919050565b7f4e6f742072656769737465726564000000000000000000000000000000000000600082015250565b7f4e6f742041637469766500000000000000000000000000000000000000000000600082015250565b7f5265672054696d65206f76657200000000000000000000000000000000000000600082015250565b7f416c726561647920526567697374657265640000000000000000000000000000600082015250565b7f4e6f742061206d656d6265720000000000000000000000000000000000000000600082015250565b611f8381611cb5565b8114611f8e57600080fd5b50565b611f9a81611cf3565b8114611fa557600080fd5b5056fea2646970667358221220bb9d7bfce00feaa796c2a83b0e86dc43a96c1bf8d040fe461eecaa458c4093c564736f6c63430008040033",
  "linkReferences": {},
  "deployedLinkReferences": {}
}